:0C08920048656C6C6F20576F726C64003E
:10084D007F011208AA7F381208AA7F0C1208AA7F0E
:09085D00061208AA7F800208AA15
:0A08AA008FA0C2B0120800C2B222F3
:0A08B4008FA0D2B0120800C2B222D9
:100828008B088A09890AAB08AA09A90A120866600E
:1008380013050AE50A7002050914F9120866FF1281
:0508480008B480E2226B
:08080000C2B1D2B27F017E00FB
:10080800E4FDFCC3ED9FEC9E5015E4FBFA0BBB0026
:10081800010ABA04F8BBFCF50DBD00010C80E42206
:10087F0012084D7F801208AA7BFF7A08799212081E
:03088F002880FEC0
:0300000002089E55
:0C089E00787FE4F6D8FD75810A02087F1F
:10086600BB010689828A83E0225002E722BBFE0290
:09087600E32289828A83E49322C3
:00000001FF