:100A7100020800010A0A3F065B4F666D7D077F6F22
:0A0A8100081601020408102040804E
:040A4D00AF09AE0837
:100A5100E4FDFCC3ED9FEC9E5015E4FBFA0BBB00DB
:100A6100010ABA04F8BBFBF50DBD00010C80E422BC
:1009DD00E4F514F515740A2515F8E6F580D293D2D1
:1009ED0092D291D2907F197E00120A510515E5150C
:1009FD0070020514D39409E5146480948040D6C226
:080A0D0093C292C291C2902233
:100A1500E4F514F51574162515F8E6F580D293D28C
:100A250092D291D2907F287E00120A510515E515C4
:100A350070020514C39409E5146480948040D6C2FD
:080A450093C292C291C29022FB
:100917008E1E8F1FD2947C037DE812088C740A2FD9
:10092700F8E6F580D290120A4DC290AE1EAF1F7C3A
:10093700007D6412088C7C007D0A12088C740A2DD5
:10094700F8E6F580D291120A4DC291AE1EAF1F7C18
:10095700007D0A12088C7C007D0A12088C740A2D0F
:10096700F8E6F580D292120A4DC292AE1EAF1F7CF6
:10097700007D0A12088C740A2DF8E6F580D29312CE
:050987000A4DC293229D
:10098C00E4F580C293C292C291C290D2947F64FE6D
:10099C00120A51C294120A157F647E00120A511277
:1009AC0009DD7F647E00120A517FD27E0412091782
:1009BC00E4F514F515AF15AE141209170515E51568
:1009CC0070020514C3940FE514648094A740E6806C
:0109DC00DF3B
:03000000020800F3
:0C080000787FE4F6D8FD75811F020847E0
:10088C00C2D5EC30E709B2D5E4C39DFDE49CFCEE87
:10089C0030E715B2D5E4C39FFFE49EFE1208C2C335
:1008AC00E49DFDE49CFC80031208C230D507C3E430
:0608BC009FFFE49EFE22F6
:10080C0002098CE493A3F8E493A34003F68001F26D
:10081C0008DFF48029E493A3F85407240CC8C333ED
:10082C00C4540F4420C8834004F456800146F6DFBC
:10083C00E4800B0102040810204080900A71E47ED1
:10084C00019360BCA3FF543F30E509541FFEE493B1
:10085C00A360010ECF54C025E060A840B8E493A378
:10086C00FAE493A3F8E493A3C8C582C8CAC583CAA3
:10087C00F0A3C8C582C8CAC583CADFE9DEE780BE5B
:010A8B00006A
:1008C200BC000BBE0029EF8DF084FFADF022E4CC1A
:1008D200F875F008EF2FFFEE33FEEC33FCEE9DECE3
:1008E200984005FCEE9DFE0FD5F0E9E4CEFD22ED29
:1008F200F8F5F0EE8420D21CFEADF075F008EF2F73
:10090200FFED33FD4007985006D5F0F222C398FD63
:050912000FD5F0EA2200
:00000001FF
